{
  "transactions": [
    {
      "hash": "0xe113e4e9d427975621c60a1eacfd803c01f4d141cd5dce62eb90624c487f38af",
      "transactionType": "CALL",
      "contractName": null,
      "contractAddress": "0x779877A7B0D9E8603169DdbD7836e478b4624789",
      "function": "transferAndCall(address,uint256,bytes)",
      "arguments": [
        "0x8103B0A8A00be2DDC778e6e7eaa21791Cd364625",
        "3000000000000000000",
        "0x000000000000000000000000000000000000000000000000000000000000278e"
      ],
      "transaction": {
        "type": "0x02",
        "from": "0xf14f154a51bba2cc04eeb8fe3353a439fcd32413",
        "to": "0x779877a7b0d9e8603169ddbd7836e478b4624789",
        "gas": "0x13fbe",
        "value": "0x0",
        "data": "0x4000aea00000000000000000000000008103b0a8a00be2ddc778e6e7eaa21791cd36462500000000000000000000000000000000000000000000000029a2241af62c000000000000000000000000000000000000000000000000000000000000000000600000000000000000000000000000000000000000000000000000000000000020000000000000000000000000000000000000000000000000000000000000278e",
        "nonce": "0x2",
        "accessList": []
      },
      "additionalContracts": [],
      "isFixedGasLimit": false
    }
  ],
  "receipts": [
    {
      "transactionHash": "0xe113e4e9d427975621c60a1eacfd803c01f4d141cd5dce62eb90624c487f38af",
      "transactionIndex": "0x16",
      "blockHash": "0x22788d059f14c50be798ae72f1ede5af2af9cbf05d8ffe50ffb93a392b96d9c8",
      "blockNumber": "0x53c0be",
      "from": "0xF14f154A51BbA2cc04eeb8fE3353A439FCd32413",
      "to": "0x779877A7B0D9E8603169DdbD7836e478b4624789",
      "cumulativeGasUsed": "0x16a29e",
      "gasUsed": "0xe77e",
      "contractAddress": null,
      "logs": [
        {
          "address": "0x779877A7B0D9E8603169DdbD7836e478b4624789",
          "topics": [
            "0xddf252ad1be2c89b69c2b068fc378daa952ba7f163c4a11628f55a4df523b3ef",
            "0x000000000000000000000000f14f154a51bba2cc04eeb8fe3353a439fcd32413",
            "0x0000000000000000000000008103b0a8a00be2ddc778e6e7eaa21791cd364625"
          ],
          "data": "0x00000000000000000000000000000000000000000000000029a2241af62c0000",
          "blockHash": "0x22788d059f14c50be798ae72f1ede5af2af9cbf05d8ffe50ffb93a392b96d9c8",
          "blockNumber": "0x53c0be",
          "transactionHash": "0xe113e4e9d427975621c60a1eacfd803c01f4d141cd5dce62eb90624c487f38af",
          "transactionIndex": "0x16",
          "logIndex": "0xb",
          "removed": false
        },
        {
          "address": "0x779877A7B0D9E8603169DdbD7836e478b4624789",
          "topics": [
            "0xe19260aff97b920c7df27010903aeb9c8d2be5d310a2c67824cf3f15396e4c16",
            "0x000000000000000000000000f14f154a51bba2cc04eeb8fe3353a439fcd32413",
            "0x0000000000000000000000008103b0a8a00be2ddc778e6e7eaa21791cd364625"
          ],
          "data": "0x00000000000000000000000000000000000000000000000029a2241af62c000000000000000000000000000000000000000000000000000000000000000000400000000000000000000000000000000000000000000000000000000000000020000000000000000000000000000000000000000000000000000000000000278e",
          "blockHash": "0x22788d059f14c50be798ae72f1ede5af2af9cbf05d8ffe50ffb93a392b96d9c8",
          "blockNumber": "0x53c0be",
          "transactionHash": "0xe113e4e9d427975621c60a1eacfd803c01f4d141cd5dce62eb90624c487f38af",
          "transactionIndex": "0x16",
          "logIndex": "0xc",
          "removed": false
        },
        {
          "address": "0x8103B0A8A00be2DDC778e6e7eaa21791Cd364625",
          "topics": [
            "0xd39ec07f4e209f627a4c427971473820dc129761ba28de8906bd56f57101d4f8",
            "0x000000000000000000000000000000000000000000000000000000000000278e"
          ],
          "data": "0x0000000000000000000000000000000000000000000000008ac7230489e80000000000000000000000000000000000000000000000000000b469471f80140000",
          "blockHash": "0x22788d059f14c50be798ae72f1ede5af2af9cbf05d8ffe50ffb93a392b96d9c8",
          "blockNumber": "0x53c0be",
          "transactionHash": "0xe113e4e9d427975621c60a1eacfd803c01f4d141cd5dce62eb90624c487f38af",
          "transactionIndex": "0x16",
          "logIndex": "0xd",
          "removed": false
        }
      ],
      "status": "0x1",
      "logsBloom": "0x0000001400000000004000000000000000000000000002020000000012000000000000000000800000000000000000000000000000000000000000000000000000000000000000000000000800000000000000000000000000002000000000000000000000000000000000000000000000000000400000000000001000000000000000000c000020000000000000800010000020000000000000000000000000000000000000000000000000000000000000000000000000000400000000000004000002000000000000000000000000000000000000000100000000000000008000000001000000000000000000000000000000000000000000000000000000",
      "type": "0x2",
      "effectiveGasPrice": "0x278b9ab90f"
    }
  ],
  "libraries": [],
  "pending": [],
  "returns": {},
  "timestamp": 1710479175,
  "chain": 11155111,
  "commit": "1c072e4"
}